{
  "_format": "hh-sol-artifact-1",
  "contractName": "NFTravel",
  "sourceName": "contracts/mapnft.sol",
  "abi": [
    {
      "inputs": [],
      "stateMutability": "nonpayable",
      "type": "constructor"
    },
    {
      "anonymous": false,
      "inputs": [
        {
          "indexed": true,
          "internalType": "address",
          "name": "owner",
          "type": "address"
        },
        {
          "indexed": true,
          "internalType": "address",
          "name": "approved",
          "type": "address"
        },
        {
          "indexed": true,
          "internalType": "uint256",
          "name": "tokenId",
          "type": "uint256"
        }
      ],
      "name": "Approval",
      "type": "event"
    },
    {
      "anonymous": false,
      "inputs": [
        {
          "indexed": true,
          "internalType": "address",
          "name": "owner",
          "type": "address"
        },
        {
          "indexed": true,
          "internalType": "address",
          "name": "operator",
          "type": "address"
        },
        {
          "indexed": false,
          "internalType": "bool",
          "name": "approved",
          "type": "bool"
        }
      ],
      "name": "ApprovalForAll",
      "type": "event"
    },
    {
      "anonymous": false,
      "inputs": [
        {
          "indexed": true,
          "internalType": "address",
          "name": "from",
          "type": "address"
        },
        {
          "indexed": true,
          "internalType": "address",
          "name": "to",
          "type": "address"
        },
        {
          "indexed": true,
          "internalType": "uint256",
          "name": "tokenId",
          "type": "uint256"
        }
      ],
      "name": "Transfer",
      "type": "event"
    },
    {
      "inputs": [
        {
          "internalType": "address",
          "name": "to",
          "type": "address"
        },
        {
          "internalType": "uint256",
          "name": "tokenId",
          "type": "uint256"
        }
      ],
      "name": "approve",
      "outputs": [],
      "stateMutability": "nonpayable",
      "type": "function"
    },
    {
      "inputs": [
        {
          "internalType": "address",
          "name": "owner",
          "type": "address"
        }
      ],
      "name": "balanceOf",
      "outputs": [
        {
          "internalType": "uint256",
          "name": "",
          "type": "uint256"
        }
      ],
      "stateMutability": "view",
      "type": "function"
    },
    {
      "inputs": [
        {
          "internalType": "bool",
          "name": "_canTransfer1",
          "type": "bool"
        }
      ],
      "name": "choice",
      "outputs": [],
      "stateMutability": "nonpayable",
      "type": "function"
    },
    {
      "inputs": [],
      "name": "deposit",
      "outputs": [],
      "stateMutability": "payable",
      "type": "function"
    },
    {
      "inputs": [
        {
          "internalType": "uint256",
          "name": "tokenId",
          "type": "uint256"
        }
      ],
      "name": "getApproved",
      "outputs": [
        {
          "internalType": "address",
          "name": "",
          "type": "address"
        }
      ],
      "stateMutability": "view",
      "type": "function"
    },
    {
      "inputs": [
        {
          "internalType": "address",
          "name": "owner",
          "type": "address"
        },
        {
          "internalType": "address",
          "name": "operator",
          "type": "address"
        }
      ],
      "name": "isApprovedForAll",
      "outputs": [
        {
          "internalType": "bool",
          "name": "",
          "type": "bool"
        }
      ],
      "stateMutability": "view",
      "type": "function"
    },
    {
      "inputs": [],
      "name": "name",
      "outputs": [
        {
          "internalType": "string",
          "name": "",
          "type": "string"
        }
      ],
      "stateMutability": "view",
      "type": "function"
    },
    {
      "inputs": [
        {
          "internalType": "string",
          "name": "tokenURI",
          "type": "string"
        }
      ],
      "name": "onlymint",
      "outputs": [
        {
          "internalType": "uint256",
          "name": "",
          "type": "uint256"
        }
      ],
      "stateMutability": "nonpayable",
      "type": "function"
    },
    {
      "inputs": [],
      "name": "owner",
      "outputs": [
        {
          "internalType": "address payable",
          "name": "",
          "type": "address"
        }
      ],
      "stateMutability": "view",
      "type": "function"
    },
    {
      "inputs": [
        {
          "internalType": "uint256",
          "name": "tokenId",
          "type": "uint256"
        }
      ],
      "name": "ownerOf",
      "outputs": [
        {
          "internalType": "address",
          "name": "",
          "type": "address"
        }
      ],
      "stateMutability": "view",
      "type": "function"
    },
    {
      "inputs": [
        {
          "internalType": "address",
          "name": "from",
          "type": "address"
        },
        {
          "internalType": "address",
          "name": "to",
          "type": "address"
        },
        {
          "internalType": "uint256",
          "name": "tokenId",
          "type": "uint256"
        }
      ],
      "name": "safeTransferFrom",
      "outputs": [],
      "stateMutability": "nonpayable",
      "type": "function"
    },
    {
      "inputs": [
        {
          "internalType": "address",
          "name": "from",
          "type": "address"
        },
        {
          "internalType": "address",
          "name": "to",
          "type": "address"
        },
        {
          "internalType": "uint256",
          "name": "tokenId",
          "type": "uint256"
        },
        {
          "internalType": "bytes",
          "name": "_data",
          "type": "bytes"
        }
      ],
      "name": "safeTransferFrom",
      "outputs": [],
      "stateMutability": "nonpayable",
      "type": "function"
    },
    {
      "inputs": [
        {
          "internalType": "string",
          "name": "tokenURI",
          "type": "string"
        }
      ],
      "name": "secondmint",
      "outputs": [
        {
          "internalType": "uint256",
          "name": "",
          "type": "uint256"
        }
      ],
      "stateMutability": "nonpayable",
      "type": "function"
    },
    {
      "inputs": [
        {
          "internalType": "address",
          "name": "operator",
          "type": "address"
        },
        {
          "internalType": "bool",
          "name": "approved",
          "type": "bool"
        }
      ],
      "name": "setApprovalForAll",
      "outputs": [],
      "stateMutability": "nonpayable",
      "type": "function"
    },
    {
      "inputs": [
        {
          "internalType": "bytes4",
          "name": "interfaceId",
          "type": "bytes4"
        }
      ],
      "name": "supportsInterface",
      "outputs": [
        {
          "internalType": "bool",
          "name": "",
          "type": "bool"
        }
      ],
      "stateMutability": "view",
      "type": "function"
    },
    {
      "inputs": [],
      "name": "symbol",
      "outputs": [
        {
          "internalType": "string",
          "name": "",
          "type": "string"
        }
      ],
      "stateMutability": "view",
      "type": "function"
    },
    {
      "inputs": [
        {
          "internalType": "uint256",
          "name": "tokenId",
          "type": "uint256"
        }
      ],
      "name": "tokenURI",
      "outputs": [
        {
          "internalType": "string",
          "name": "",
          "type": "string"
        }
      ],
      "stateMutability": "view",
      "type": "function"
    },
    {
      "inputs": [
        {
          "internalType": "address",
          "name": "from",
          "type": "address"
        },
        {
          "internalType": "address",
          "name": "to",
          "type": "address"
        },
        {
          "internalType": "uint256",
          "name": "tokenId",
          "type": "uint256"
        }
      ],
      "name": "transferFrom",
      "outputs": [],
      "stateMutability": "nonpayable",
      "type": "function"
    }
  ],
  "bytecode": "0x60806040523480156200001157600080fd5b50604051806040016040528060088152602001671391951c985d995b60c21b81525060405180604001604052806008815260200167139195149055915360c21b81525081600090805190602001906200006c9291906200008b565b508051620000829060019060208401906200008b565b5050506200016e565b828054620000999062000131565b90600052602060002090601f016020900481019282620000bd576000855562000108565b82601f10620000d857805160ff191683800117855562000108565b8280016001018555821562000108579182015b8281111562000108578251825591602001919060010190620000eb565b50620001169291506200011a565b5090565b5b808211156200011657600081556001016200011b565b600181811c908216806200014657607f821691505b602082108114156200016857634e487b7160e01b600052602260045260246000fd5b50919050565b6118e2806200017e6000396000f3fe6080604052600436106101095760003560e01c80638da5cb5b11610095578063b88d4fde11610064578063b88d4fde146102e2578063c87b56dd14610302578063d0e30db014610322578063d31dddd51461032a578063e985e9c51461036557600080fd5b80638da5cb5b1461026d57806395d89b411461028d578063a22cb465146102a2578063af1a9cd9146102c257600080fd5b806323b872dd116100dc57806323b872dd146101bf57806342842e0e146101df5780636352211e146101ff57806370a082311461021f578063800655511461024d57600080fd5b806301ffc9a71461010e57806306fdde0314610143578063081812fc14610165578063095ea7b31461019d575b600080fd5b34801561011a57600080fd5b5061012e610129366004611578565b6103ae565b60405190151581526020015b60405180910390f35b34801561014f57600080fd5b50610158610400565b60405161013a91906116ac565b34801561017157600080fd5b506101856101803660046115fb565b610492565b6040516001600160a01b03909116815260200161013a565b3480156101a957600080fd5b506101bd6101b8366004611533565b61051f565b005b3480156101cb57600080fd5b506101bd6101da366004611451565b610635565b3480156101eb57600080fd5b506101bd6101fa366004611451565b610666565b34801561020b57600080fd5b5061018561021a3660046115fb565b610681565b34801561022b57600080fd5b5061023f61023a366004611403565b6106f8565b60405190815260200161013a565b34801561025957600080fd5b5061023f6102683660046115b2565b61077f565b34801561027957600080fd5b50600954610185906001600160a01b031681565b34801561029957600080fd5b506101586107cb565b3480156102ae57600080fd5b506101bd6102bd366004611509565b6107da565b3480156102ce57600080fd5b5061023f6102dd3660046115b2565b6107e9565b3480156102ee57600080fd5b506101bd6102fd36600461148d565b610805565b34801561030e57600080fd5b5061015861031d3660046115fb565b61083d565b6101bd6109b4565b34801561033657600080fd5b506101bd61034536600461155d565b336000908152600860205260409020805460ff1916911515919091179055565b34801561037157600080fd5b5061012e61038036600461141e565b6001600160a01b03918216600090815260056020908152604080832093909416825291909152205460ff1690565b60006001600160e01b031982166380ac58cd60e01b14806103df57506001600160e01b03198216635b5e139f60e01b145b806103fa57506301ffc9a760e01b6001600160e01b03198316145b92915050565b60606000805461040f906117d1565b80601f016020809104026020016040519081016040528092919081815260200182805461043b906117d1565b80156104885780601f1061045d57610100808354040283529160200191610488565b820191906000526020600020905b81548152906001019060200180831161046b57829003601f168201915b5050505050905090565b600061049d826109d2565b6105035760405162461bcd60e51b815260206004820152602c60248201527f4552433732313a20617070726f76656420717565727920666f72206e6f6e657860448201526b34b9ba32b73a103a37b5b2b760a11b60648201526084015b60405180910390fd5b506000908152600460205260409020546001600160a01b031690565b600061052a82610681565b9050806001600160a01b0316836001600160a01b031614156105985760405162461bcd60e51b815260206004820152602160248201527f4552433732313a20617070726f76616c20746f2063757272656e74206f776e656044820152603960f91b60648201526084016104fa565b336001600160a01b03821614806105b457506105b48133610380565b6106265760405162461bcd60e51b815260206004820152603860248201527f4552433732313a20617070726f76652063616c6c6572206973206e6f74206f7760448201527f6e6572206e6f7220617070726f76656420666f7220616c6c000000000000000060648201526084016104fa565b61063083836109ef565b505050565b61063f3382610a5d565b61065b5760405162461bcd60e51b81526004016104fa90611711565b610630838383610b43565b61063083838360405180602001604052806000815250610805565b6000818152600260205260408120546001600160a01b0316806103fa5760405162461bcd60e51b815260206004820152602960248201527f4552433732313a206f776e657220717565727920666f72206e6f6e657869737460448201526832b73a103a37b5b2b760b91b60648201526084016104fa565b60006001600160a01b0382166107635760405162461bcd60e51b815260206004820152602a60248201527f4552433732313a2062616c616e636520717565727920666f7220746865207a65604482015269726f206164647265737360b01b60648201526084016104fa565b506001600160a01b031660009081526003602052604090205490565b3360009081526008602052604081205460ff161561079c57600080fd5b6107aa600780546001019055565b60006107b560075490565b90506107c13382610cee565b6103fa8184610e2d565b60606001805461040f906117d1565b6107e5338383610eb8565b5050565b3360009081526008602052604081205460ff1661079c57600080fd5b61080f3383610a5d565b61082b5760405162461bcd60e51b81526004016104fa90611711565b61083784848484610f87565b50505050565b6060610848826109d2565b6108ae5760405162461bcd60e51b815260206004820152603160248201527f45524337323155524953746f726167653a2055524920717565727920666f72206044820152703737b732bc34b9ba32b73a103a37b5b2b760791b60648201526084016104fa565b600082815260066020526040812080546108c7906117d1565b80601f01602080910402602001604051908101604052809291908181526020018280546108f3906117d1565b80156109405780601f1061091557610100808354040283529160200191610940565b820191906000526020600020905b81548152906001019060200180831161092357829003601f168201915b50505050509050600061095e60408051602081019091526000815290565b9050805160001415610971575092915050565b8151156109a357808260405160200161098b929190611640565b60405160208183030381529060405292505050919050565b6109ac84610fba565b949350505050565b3360009081526008602052604090205460ff166109d057600080fd5b565b6000908152600260205260409020546001600160a01b0316151590565b600081815260046020526040902080546001600160a01b0319166001600160a01b0384169081179091558190610a2482610681565b6001600160a01b03167f8c5be1e5ebec7d5bd14f71427d1e84f3dd0314c0f7b2291e5b200ac8c7c3b92560405160405180910390a45050565b6000610a68826109d2565b610ac95760405162461bcd60e51b815260206004820152602c60248201527f4552433732313a206f70657261746f7220717565727920666f72206e6f6e657860448201526b34b9ba32b73a103a37b5b2b760a11b60648201526084016104fa565b6000610ad483610681565b9050806001600160a01b0316846001600160a01b03161480610b0f5750836001600160a01b0316610b0484610492565b6001600160a01b0316145b806109ac57506001600160a01b0380821660009081526005602090815260408083209388168352929052205460ff166109ac565b826001600160a01b0316610b5682610681565b6001600160a01b031614610bbe5760405162461bcd60e51b815260206004820152602960248201527f4552433732313a207472616e73666572206f6620746f6b656e2074686174206960448201526839903737ba1037bbb760b91b60648201526084016104fa565b6001600160a01b038216610c205760405162461bcd60e51b8152602060048201526024808201527f4552433732313a207472616e7366657220746f20746865207a65726f206164646044820152637265737360e01b60648201526084016104fa565b610c2b838383611092565b610c366000826109ef565b6001600160a01b0383166000908152600360205260408120805460019290610c5f90849061178e565b90915550506001600160a01b0382166000908152600360205260408120805460019290610c8d908490611762565b909155505060008181526002602052604080822080546001600160a01b0319166001600160a01b0386811691821790925591518493918716917fddf252ad1be2c89b69c2b068fc378daa952ba7f163c4a11628f55a4df523b3ef91a4505050565b6001600160a01b038216610d445760405162461bcd60e51b815260206004820181905260248201527f4552433732313a206d696e7420746f20746865207a65726f206164647265737360448201526064016104fa565b610d4d816109d2565b15610d9a5760405162461bcd60e51b815260206004820152601c60248201527f4552433732313a20746f6b656e20616c7265616479206d696e7465640000000060448201526064016104fa565b610da660008383611092565b6001600160a01b0382166000908152600360205260408120805460019290610dcf908490611762565b909155505060008181526002602052604080822080546001600160a01b0319166001600160a01b03861690811790915590518392907fddf252ad1be2c89b69c2b068fc378daa952ba7f163c4a11628f55a4df523b3ef908290a45050565b610e36826109d2565b610e995760405162461bcd60e51b815260206004820152602e60248201527f45524337323155524953746f726167653a2055524920736574206f66206e6f6e60448201526d32bc34b9ba32b73a103a37b5b2b760911b60648201526084016104fa565b60008281526006602090815260409091208251610630928401906112c8565b816001600160a01b0316836001600160a01b03161415610f1a5760405162461bcd60e51b815260206004820152601960248201527f4552433732313a20617070726f766520746f2063616c6c65720000000000000060448201526064016104fa565b6001600160a01b03838116600081815260056020908152604080832094871680845294825291829020805460ff191686151590811790915591519182527f17307eab39ab6107e8899845ad3d59bd9653f200f220920489ca2b5937696c31910160405180910390a3505050565b610f92848484610b43565b610f9e848484846110bd565b6108375760405162461bcd60e51b81526004016104fa906116bf565b6060610fc5826109d2565b6110295760405162461bcd60e51b815260206004820152602f60248201527f4552433732314d657461646174613a2055524920717565727920666f72206e6f60448201526e3732bc34b9ba32b73a103a37b5b2b760891b60648201526084016104fa565b600061104060408051602081019091526000815290565b90506000815111611060576040518060200160405280600081525061108b565b8061106a846111ca565b60405160200161107b929190611640565b6040516020818303038152906040525b9392505050565b6001600160a01b03831615610630573360009081526008602052604090205460ff1661063057600080fd5b60006001600160a01b0384163b156111bf57604051630a85bd0160e11b81526001600160a01b0385169063150b7a029061110190339089908890889060040161166f565b602060405180830381600087803b15801561111b57600080fd5b505af192505050801561114b575060408051601f3d908101601f1916820190925261114891810190611595565b60015b6111a5573d808015611179576040519150601f19603f3d011682016040523d82523d6000602084013e61117e565b606091505b50805161119d5760405162461bcd60e51b81526004016104fa906116bf565b805181602001fd5b6001600160e01b031916630a85bd0160e11b1490506109ac565b506001949350505050565b6060816111ee5750506040805180820190915260018152600360fc1b602082015290565b8160005b811561121857806112028161180c565b91506112119050600a8361177a565b91506111f2565b60008167ffffffffffffffff8111156112335761123361187d565b6040519080825280601f01601f19166020018201604052801561125d576020820181803683370190505b5090505b84156109ac5761127260018361178e565b915061127f600a86611827565b61128a906030611762565b60f81b81838151811061129f5761129f611867565b60200101906001600160f81b031916908160001a9053506112c1600a8661177a565b9450611261565b8280546112d4906117d1565b90600052602060002090601f0160209004810192826112f6576000855561133c565b82601f1061130f57805160ff191683800117855561133c565b8280016001018555821561133c579182015b8281111561133c578251825591602001919060010190611321565b5061134892915061134c565b5090565b5b80821115611348576000815560010161134d565b600067ffffffffffffffff8084111561137c5761137c61187d565b604051601f8501601f19908116603f011681019082821181831017156113a4576113a461187d565b816040528093508581528686860111156113bd57600080fd5b858560208301376000602087830101525050509392505050565b80356001600160a01b03811681146113ee57600080fd5b919050565b803580151581146113ee57600080fd5b60006020828403121561141557600080fd5b61108b826113d7565b6000806040838503121561143157600080fd5b61143a836113d7565b9150611448602084016113d7565b90509250929050565b60008060006060848603121561146657600080fd5b61146f846113d7565b925061147d602085016113d7565b9150604084013590509250925092565b600080600080608085870312156114a357600080fd5b6114ac856113d7565b93506114ba602086016113d7565b925060408501359150606085013567ffffffffffffffff8111156114dd57600080fd5b8501601f810187136114ee57600080fd5b6114fd87823560208401611361565b91505092959194509250565b6000806040838503121561151c57600080fd5b611525836113d7565b9150611448602084016113f3565b6000806040838503121561154657600080fd5b61154f836113d7565b946020939093013593505050565b60006020828403121561156f57600080fd5b61108b826113f3565b60006020828403121561158a57600080fd5b813561108b81611893565b6000602082840312156115a757600080fd5b815161108b81611893565b6000602082840312156115c457600080fd5b813567ffffffffffffffff8111156115db57600080fd5b8201601f810184136115ec57600080fd5b6109ac84823560208401611361565b60006020828403121561160d57600080fd5b5035919050565b6000815180845261162c8160208601602086016117a5565b601f01601f19169290920160200192915050565b600083516116528184602088016117a5565b8351908301906116668183602088016117a5565b01949350505050565b6001600160a01b03858116825284166020820152604081018390526080606082018190526000906116a290830184611614565b9695505050505050565b60208152600061108b6020830184611614565b60208082526032908201527f4552433732313a207472616e7366657220746f206e6f6e20455243373231526560408201527131b2b4bb32b91034b6b83632b6b2b73a32b960711b606082015260800190565b60208082526031908201527f4552433732313a207472616e736665722063616c6c6572206973206e6f74206f6040820152701ddb995c881b9bdc88185c1c1c9bdd9959607a1b606082015260800190565b600082198211156117755761177561183b565b500190565b60008261178957611789611851565b500490565b6000828210156117a0576117a061183b565b500390565b60005b838110156117c05781810151838201526020016117a8565b838111156108375750506000910152565b600181811c908216806117e557607f821691505b6020821081141561180657634e487b7160e01b600052602260045260246000fd5b50919050565b60006000198214156118205761182061183b565b5060010190565b60008261183657611836611851565b500690565b634e487b7160e01b600052601160045260246000fd5b634e487b7160e01b600052601260045260246000fd5b634e487b7160e01b600052603260045260246000fd5b634e487b7160e01b600052604160045260246000fd5b6001600160e01b0319811681146118a957600080fd5b5056fea26469706673582212208c5f783cb1a51dfe8e370b3de25422e4a7fb6422da1c148897e4d5aadb98a20864736f6c63430008070033",
  "linkReferences": {},
  "deployedLinkReferences": {}
}